101 0420000131999999999YYMMDD0810A094101U.S. Bank Your Company Name 00000000
5220 FF3 CA123456789 IATACH USDUSD090430 1042000010000001